{
  "contractName": "Adminlogin",
  "abi": [
    {
      "inputs": [
        {
          "internalType": "address",
          "name": "_owner",
          "type": "address"
        }
      ],
      "stateMutability": "nonpayable",
      "type": "constructor"
    },
    {
      "anonymous": false,
      "inputs": [
        {
          "indexed": true,
          "internalType": "address",
          "name": "admin",
          "type": "address"
        },
        {
          "indexed": false,
          "internalType": "uint256",
          "name": "timestamp",
          "type": "uint256"
        }
      ],
      "name": "Assigned",
      "type": "event"
    },
    {
      "inputs": [
        {
          "internalType": "address",
          "name": "_admin",
          "type": "address"
        },
        {
          "internalType": "string",
          "name": "university",
          "type": "string"
        }
      ],
      "name": "assignadmin",
      "outputs": [],
      "stateMutability": "nonpayable",
      "type": "function"
    },
    {
      "inputs": [
        {
          "internalType": "address",
          "name": "_admin",
          "type": "address"
        }
      ],
      "name": "removeadmin",
      "outputs": [],
      "stateMutability": "nonpayable",
      "type": "function"
    },
    {
      "inputs": [],
      "name": "getadmindetails",
      "outputs": [
        {
          "internalType": "string",
          "name": "",
          "type": "string"
        }
      ],
      "stateMutability": "nonpayable",
      "type": "function"
    },
    {
      "inputs": [],
      "name": "returnalladmins",
      "outputs": [
        {
          "internalType": "address[]",
          "name": "",
          "type": "address[]"
        }
      ],
      "stateMutability": "nonpayable",
      "type": "function"
    },
    {
      "inputs": [
        {
          "internalType": "string",
          "name": "newuni",
          "type": "string"
        },
        {
          "internalType": "address",
          "name": "admin",
          "type": "address"
        }
      ],
      "name": "changeuniversity",
      "outputs": [],
      "stateMutability": "nonpayable",
      "type": "function"
    },
    {
      "inputs": [],
      "name": "getowner",
      "outputs": [
        {
          "internalType": "address",
          "name": "",
          "type": "address"
        }
      ],
      "stateMutability": "view",
      "type": "function",
      "constant": true
    },
    {
      "inputs": [
        {
          "internalType": "address",
          "name": "_admin",
          "type": "address"
        }
      ],
      "name": "login",
      "outputs": [
        {
          "internalType": "bool",
          "name": "",
          "type": "bool"
        }
      ],
      "stateMutability": "nonpayable",
      "type": "function"
    }
  ],
  "bytecode": "0x60806040523480156200001157600080fd5b5060405162001220380380620012208339818101604052810190620000379190620000e9565b80600360006101000a81548173ffffffffffffffffffffffffffffffffffffffff021916908373ffffffffffffffffffffffffffffffffffffffff160217905550506200011b565b600080fd5b600073ffffffffffffffffffffffffffffffffffffffff82169050919050565b6000620000b18262000084565b9050919050565b620000c381620000a4565b8114620000cf57600080fd5b50565b600081519050620000e381620000b8565b92915050565b6000602082840312156200010257620001016200007f565b5b60006200011284828501620000d2565b91505092915050565b6110f5806200012b6000396000f3fe608060405234801561001057600080fd5b506004361061007d5760003560e01c8063548ec47a1161005b578063548ec47a146100ee5780639f7668ac1461010a578063f0bcbca714610126578063fe0174bd146101425761007d565b80630321d7f01461008257806335a6861a146100a05780634a2f7123146100d0575b600080fd5b61008a610160565b604051610097919061092d565b60405180910390f35b6100ba60048036038101906100b591906109c1565b61028b565b6040516100c79190610a09565b60405180910390f35b6100d861033c565b6040516100e59190610ae2565b60405180910390f35b61010860048036038101906101039190610c39565b61045a565b005b610124600480360381019061011f9190610c95565b610643565b005b610140600480360381019061013b91906109c1565b610724565b005b61014a61086a565b6040516101579190610d00565b60405180910390f35b6060600115156000803373ffffffffffffffffffffffffffffffffffffffff1673ffffffffffffffffffffffffffffffffffffffff16815260200190815260200160002060009054906101000a900460ff161515146101be57600080fd5b600160003373ffffffffffffffffffffffffffffffffffffffff1673ffffffffffffffffffffffffffffffffffffffff168152602001908152602001600020805461020890610d4a565b80601f016020809104026020016040519081016040528092919081815260200182805461023490610d4a565b80156102815780601f1061025657610100808354040283529160200191610281565b820191906000526020600020905b81548152906001019060200180831161026457829003601f168201915b5050505050905090565b6000600115156000803373ffffffffffffffffffffffffffffffffffffffff1673ffffffffffffffffffffffffffffffffffffffff16815260200190815260200160002060009054906101000a900460ff161515146102e957600080fd5b6000803373ffffffffffffffffffffffffffffffffffffffff1673ffffffffffffffffffffffffffffffffffffffff16815260200190815260200160002060009054906101000a900460ff169050919050565b6060600360009054906101000a900473ffffffffffffffffffffffffffffffffffffffff1673ffffffffffffffffffffffffffffffffffffffff163373ffffffffffffffffffffffffffffffffffffffff16146103ce576040517f08c379a00000000000000000000000000000000000000000000000000000000081526004016103c590610ded565b60405180910390fd5b600280548060200260200160405190810160405280929190818152602001828054801561045057602002820191906000526020600020905b8160009054906101000a900473ffffffffffffffffffffffffffffffffffffffff1673ffffffffffffffffffffffffffffffffffffffff1681526020019060010190808311610406575b5050505050905090565b600360009054906101000a900473ffffffffffffffffffffffffffffffffffffffff1673ffffffffffffffffffffffffffffffffffffffff163373ffffffffffffffffffffffffffffffffffffffff16146104ea576040517f08c379a00000000000000000000000000000000000000000000000000000000081526004016104e190610ded565b60405180910390fd5b60016000808473ffffffffffffffffffffffffffffffffffffffff1673ffffffffffffffffffffffffffffffffffffffff16815260200190815260200160002060006101000a81548160ff02191690831515021790555080600160008473ffffffffffffffffffffffffffffffffffffffff1673ffffffffffffffffffffffffffffffffffffffff168152602001908152602001600020908161058d9190610fc3565b506002829080600181540180825580915050600190039060005260206000200160009091909190916101000a81548173ffffffffffffffffffffffffffffffffffffffff021916908373ffffffffffffffffffffffffffffffffffffffff1602179055508173ffffffffffffffffffffffffffffffffffffffff167fe086141d52d6173271d7007850f9796f2766ddf6dda2696667cbe0d5579f75264260405161063791906110a4565b60405180910390a25050565b600360009054906101000a900473ffffffffffffffffffffffffffffffffffffffff1673ffffffffffffffffffffffffffffffffffffffff163373ffffffffffffffffffffffffffffffffffffffff16146106d3576040517f08c379a00000000000000000000000000000000000000000000000000000000081526004016106ca90610ded565b60405180910390fd5b81600160003373ffffffffffffffffffffffffffffffffffffffff1673ffffffffffffffffffffffffffffffffffffffff168152602001908152602001600020908161071f9190610fc3565b505050565b600360009054906101000a900473ffffffffffffffffffffffffffffffffffffffff1673ffffffffffffffffffffffffffffffffffffffff163373ffffffffffffffffffffffffffffffffffffffff16146107b4576040517f08c379a00000000000000000000000000000000000000000000000000000000081526004016107ab90610ded565b60405180910390fd5b60008060008373ffffffffffffffffffffffffffffffffffffffff1673ffffffffffffffffffffffffffffffffffffffff16815260200190815260200160002060006101000a81548160ff02191690831515021790555060405180602001604052806000815250600160008373ffffffffffffffffffffffffffffffffffffffff1673ffffffffffffffffffffffffffffffffffffffff16815260200190815260200160002090816108669190610fc3565b5050565b6000600360009054906101000a900473ffffffffffffffffffffffffffffffffffffffff16905090565b600081519050919050565b600082825260208201905092915050565b60005b838110156108ce5780820151818401526020810190506108b3565b838111156108dd576000848401525b50505050565b6000601f19601f8301169050919050565b60006108ff82610894565b610909818561089f565b93506109198185602086016108b0565b610922816108e3565b840191505092915050565b6000602082019050818103600083015261094781846108f4565b905092915050565b6000604051905090565b600080fd5b600080fd5b600073ffffffffffffffffffffffffffffffffffffffff82169050919050565b600061098e82610963565b9050919050565b61099e81610983565b81146109a957600080fd5b50565b6000813590506109bb81610995565b92915050565b6000602082840312156109d7576109d6610959565b5b60006109e5848285016109ac565b91505092915050565b60008115159050919050565b610a03816109ee565b82525050565b6000602082019050610a1e60008301846109fa565b92915050565b600081519050919050565b600082825260208201905092915050565b6000819050602082019050919050565b610a5981610983565b82525050565b6000610a6b8383610a50565b60208301905092915050565b6000602082019050919050565b6000610a8f82610a24565b610a998185610a2f565b9350610aa483610a40565b8060005b83811015610ad5578151610abc8882610a5f565b9750610ac783610a77565b925050600181019050610aa8565b5085935050505092915050565b60006020820190508181036000830152610afc8184610a84565b905092915050565b600080fd5b600080fd5b7f4e487b7100000000000000000000000000000000000000000000000000000000600052604160045260246000fd5b610b46826108e3565b810181811067ffffffffffffffff82111715610b6557610b64610b0e565b5b80604052505050565b6000610b7861094f565b9050610b848282610b3d565b919050565b600067ffffffffffffffff821115610ba457610ba3610b0e565b5b610bad826108e3565b9050602081019050919050565b82818337600083830152505050565b6000610bdc610bd784610b89565b610b6e565b905082815260208101848484011115610bf857610bf7610b09565b5b610c03848285610bba565b509392505050565b600082601f830112610c2057610c1f610b04565b5b8135610c30848260208601610bc9565b91505092915050565b60008060408385031215610c5057610c4f610959565b5b6000610c5e858286016109ac565b925050602083013567ffffffffffffffff811115610c7f57610c7e61095e565b5b610c8b85828601610c0b565b9150509250929050565b60008060408385031215610cac57610cab610959565b5b600083013567ffffffffffffffff811115610cca57610cc961095e565b5b610cd685828601610c0b565b9250506020610ce7858286016109ac565b9150509250929050565b610cfa81610983565b82525050565b6000602082019050610d156000830184610cf1565b92915050565b7f4e487b7100000000000000000000000000000000000000000000000000000000600052602260045260246000fd5b60006002820490506001821680610d6257607f821691505b602082108103610d7557610d74610d1b565b5b50919050565b7f4f6e6c7920746865206f776e6572206f662074686520736d61727420636f6e7460008201527f726163742063616e2061737369676e207468652061646d696e73000000000000602082015250565b6000610dd7603a8361089f565b9150610de282610d7b565b604082019050919050565b60006020820190508181036000830152610e0681610dca565b9050919050565b60008190508160005260206000209050919050565b60006020601f8301049050919050565b600082821b905092915050565b600060088302610e6f7fffffffffffffffffffffffffffffffffffffffffffffffffffffffffffffffff82610e32565b610e798683610e32565b95508019841693508086168417925050509392505050565b6000819050919050565b6000819050919050565b6000610ec0610ebb610eb684610e91565b610e9b565b610e91565b9050919050565b6000819050919050565b610eda83610ea5565b610eee610ee682610ec7565b848454610e3f565b825550505050565b600090565b610f03610ef6565b610f0e818484610ed1565b505050565b5b81811015610f3257610f27600082610efb565b600181019050610f14565b5050565b601f821115610f7757610f4881610e0d565b610f5184610e22565b81016020851015610f60578190505b610f74610f6c85610e22565b830182610f13565b50505b505050565b600082821c905092915050565b6000610f9a60001984600802610f7c565b1980831691505092915050565b6000610fb38383610f89565b9150826002028217905092915050565b610fcc82610894565b67ffffffffffffffff811115610fe557610fe4610b0e565b5b610fef8254610d4a565b610ffa828285610f36565b600060209050601f83116001811461102d576000841561101b578287015190505b6110258582610fa7565b86555061108d565b601f19841661103b86610e0d565b60005b828110156110635784890151825560018201915060208501945060208101905061103e565b86831015611080578489015161107c601f891682610f89565b8355505b6001600288020188555050505b505050505050565b61109e81610e91565b82525050565b60006020820190506110b96000830184611095565b9291505056fea2646970667358221220bbef4c3794994dd49366f9406f7c7d224b81ec1132cc851d3174f4fa6031e40164736f6c634300080f0033",
  "immutableReferences": {},
  "source": "//SPDX-License-Indentifier:MIT\r\n\r\npragma solidity >=0.5.0 <0.9.0;\r\n\r\ncontract Adminlogin{\r\n\r\n    //Now this is the mapping where the owner of the smart contract stores addresses\r\n    mapping(address=>bool) private admins;\r\n\r\n    //This is the mapping where which stores the addresses of the admins to the universities they are part of\r\n    mapping(address=>string) private universities;\r\n\r\n\r\n    //This is the array that stores the values of all the admin addresses\r\n    address [] adminsarr;\r\n\r\n    //These are the events that will be emitted once a task is successfully completed\r\n    event Assigned(address indexed admin,uint timestamp);\r\n\r\n    address private owner;\r\n\r\n    constructor(address _owner)\r\n    {\r\n        //So we assign the address to the owner\r\n        owner=_owner;\r\n    }\r\n\r\n    modifier owneronly{\r\n        require(msg.sender==owner,\"Only the owner of the smart contract can assign the admins\");\r\n        _;\r\n    }\r\n\r\n    function assignadmin(address _admin,string memory university) external owneronly{\r\n        //Inside this function we are assigning the admins in the mapping\r\n        admins[_admin]=true;\r\n        universities[_admin]=university;\r\n        adminsarr.push(_admin);\r\n        emit Assigned(_admin,block.timestamp);\r\n    }\r\n\r\n    function removeadmin(address _admin) external owneronly{\r\n        admins[_admin]=false;\r\n        universities[_admin]='';\r\n    }\r\n\r\n    modifier higherauthority{\r\n        require(admins[msg.sender]==true);\r\n        _;\r\n    }\r\n\r\n    function getadmindetails() higherauthority external returns(string memory){\r\n        return universities[msg.sender];\r\n    }\r\n\r\n    function returnalladmins() external owneronly returns(address [] memory)\r\n    {\r\n       return adminsarr;\r\n    }\r\n\r\n    function changeuniversity(string memory newuni,address admin) owneronly external{\r\n        universities[msg.sender]=newuni;\r\n    }\r\n\r\n    function getowner() external view returns(address)\r\n    {\r\n        return owner;\r\n    }\r\n\r\n    function login(address _admin) external higherauthority returns(bool)\r\n    {\r\n        //So this basically means that the owner has assigned the admin for that particular college\r\n        //Hence the login is successful and you can procede to other tasks\r\n        return admins[msg.sender];\r\n    }\r\n\r\n\r\n}\r\n",
  "sourcePath": "C:\\Users\\Bhaskar\\Desktop\\SIH\\server\\adminlogin\\contracts\\Adminlogin.sol",
  "compiler": {
    "name": "solc",
    "version": "0.8.15+commit.e14f2714.Emscripten.clang"
  },
  "schemaVersion": "3.4.8",
  "updatedAt": "2022-08-13T06:40:19.463Z",
  "networkType": "ethereum",
  "devdoc": {
    "kind": "dev",
    "methods": {},
    "version": 1
  },
  "userdoc": {
    "kind": "user",
    "methods": {},
    "version": 1
  }
}