{
  "contractName": "NFT",
  "abi": [
    {
      "inputs": [],
      "stateMutability": "nonpayable",
      "type": "constructor"
    },
    {
      "anonymous": false,
      "inputs": [
        {
          "indexed": true,
          "internalType": "address",
          "name": "owner",
          "type": "address"
        },
        {
          "indexed": true,
          "internalType": "address",
          "name": "approved",
          "type": "address"
        },
        {
          "indexed": true,
          "internalType": "uint256",
          "name": "tokenId",
          "type": "uint256"
        }
      ],
      "name": "Approval",
      "type": "event"
    },
    {
      "anonymous": false,
      "inputs": [
        {
          "indexed": true,
          "internalType": "address",
          "name": "owner",
          "type": "address"
        },
        {
          "indexed": true,
          "internalType": "address",
          "name": "operator",
          "type": "address"
        },
        {
          "indexed": false,
          "internalType": "bool",
          "name": "approved",
          "type": "bool"
        }
      ],
      "name": "ApprovalForAll",
      "type": "event"
    },
    {
      "anonymous": false,
      "inputs": [
        {
          "indexed": true,
          "internalType": "address",
          "name": "from",
          "type": "address"
        },
        {
          "indexed": true,
          "internalType": "address",
          "name": "to",
          "type": "address"
        },
        {
          "indexed": true,
          "internalType": "uint256",
          "name": "tokenId",
          "type": "uint256"
        }
      ],
      "name": "Transfer",
      "type": "event"
    },
    {
      "inputs": [
        {
          "internalType": "address",
          "name": "to",
          "type": "address"
        },
        {
          "internalType": "uint256",
          "name": "tokenId",
          "type": "uint256"
        }
      ],
      "name": "approve",
      "outputs": [],
      "stateMutability": "nonpayable",
      "type": "function"
    },
    {
      "inputs": [
        {
          "internalType": "address",
          "name": "owner",
          "type": "address"
        }
      ],
      "name": "balanceOf",
      "outputs": [
        {
          "internalType": "uint256",
          "name": "",
          "type": "uint256"
        }
      ],
      "stateMutability": "view",
      "type": "function",
      "constant": true
    },
    {
      "inputs": [
        {
          "internalType": "uint256",
          "name": "tokenId",
          "type": "uint256"
        }
      ],
      "name": "getApproved",
      "outputs": [
        {
          "internalType": "address",
          "name": "",
          "type": "address"
        }
      ],
      "stateMutability": "view",
      "type": "function",
      "constant": true
    },
    {
      "inputs": [
        {
          "internalType": "address",
          "name": "owner",
          "type": "address"
        },
        {
          "internalType": "address",
          "name": "operator",
          "type": "address"
        }
      ],
      "name": "isApprovedForAll",
      "outputs": [
        {
          "internalType": "bool",
          "name": "",
          "type": "bool"
        }
      ],
      "stateMutability": "view",
      "type": "function",
      "constant": true
    },
    {
      "inputs": [],
      "name": "name",
      "outputs": [
        {
          "internalType": "string",
          "name": "",
          "type": "string"
        }
      ],
      "stateMutability": "view",
      "type": "function",
      "constant": true
    },
    {
      "inputs": [
        {
          "internalType": "uint256",
          "name": "tokenId",
          "type": "uint256"
        }
      ],
      "name": "ownerOf",
      "outputs": [
        {
          "internalType": "address",
          "name": "",
          "type": "address"
        }
      ],
      "stateMutability": "view",
      "type": "function",
      "constant": true
    },
    {
      "inputs": [
        {
          "internalType": "address",
          "name": "from",
          "type": "address"
        },
        {
          "internalType": "address",
          "name": "to",
          "type": "address"
        },
        {
          "internalType": "uint256",
          "name": "tokenId",
          "type": "uint256"
        }
      ],
      "name": "safeTransferFrom",
      "outputs": [],
      "stateMutability": "nonpayable",
      "type": "function"
    },
    {
      "inputs": [
        {
          "internalType": "address",
          "name": "from",
          "type": "address"
        },
        {
          "internalType": "address",
          "name": "to",
          "type": "address"
        },
        {
          "internalType": "uint256",
          "name": "tokenId",
          "type": "uint256"
        },
        {
          "internalType": "bytes",
          "name": "data",
          "type": "bytes"
        }
      ],
      "name": "safeTransferFrom",
      "outputs": [],
      "stateMutability": "nonpayable",
      "type": "function"
    },
    {
      "inputs": [
        {
          "internalType": "address",
          "name": "operator",
          "type": "address"
        },
        {
          "internalType": "bool",
          "name": "approved",
          "type": "bool"
        }
      ],
      "name": "setApprovalForAll",
      "outputs": [],
      "stateMutability": "nonpayable",
      "type": "function"
    },
    {
      "inputs": [
        {
          "internalType": "bytes4",
          "name": "interfaceId",
          "type": "bytes4"
        }
      ],
      "name": "supportsInterface",
      "outputs": [
        {
          "internalType": "bool",
          "name": "",
          "type": "bool"
        }
      ],
      "stateMutability": "view",
      "type": "function",
      "constant": true
    },
    {
      "inputs": [],
      "name": "symbol",
      "outputs": [
        {
          "internalType": "string",
          "name": "",
          "type": "string"
        }
      ],
      "stateMutability": "view",
      "type": "function",
      "constant": true
    },
    {
      "inputs": [
        {
          "internalType": "uint256",
          "name": "tokenId",
          "type": "uint256"
        }
      ],
      "name": "tokenURI",
      "outputs": [
        {
          "internalType": "string",
          "name": "",
          "type": "string"
        }
      ],
      "stateMutability": "view",
      "type": "function",
      "constant": true
    },
    {
      "inputs": [
        {
          "internalType": "address",
          "name": "from",
          "type": "address"
        },
        {
          "internalType": "address",
          "name": "to",
          "type": "address"
        },
        {
          "internalType": "uint256",
          "name": "tokenId",
          "type": "uint256"
        }
      ],
      "name": "transferFrom",
      "outputs": [],
      "stateMutability": "nonpayable",
      "type": "function"
    },
    {
      "inputs": [
        {
          "internalType": "address",
          "name": "to",
          "type": "address"
        },
        {
          "internalType": "string",
          "name": "tokenuri",
          "type": "string"
        }
      ],
      "name": "mintingtoken",
      "outputs": [
        {
          "internalType": "uint256",
          "name": "",
          "type": "uint256"
        }
      ],
      "stateMutability": "nonpayable",
      "type": "function"
    },
    {
      "inputs": [
        {
          "internalType": "uint256",
          "name": "tokenId",
          "type": "uint256"
        }
      ],
      "name": "gettokenuri",
      "outputs": [
        {
          "internalType": "string",
          "name": "",
          "type": "string"
        }
      ],
      "stateMutability": "nonpayable",
      "type": "function"
    },
    {
      "inputs": [
        {
          "internalType": "address",
          "name": "from",
          "type": "address"
        },
        {
          "internalType": "address",
          "name": "to",
          "type": "address"
        }
      ],
      "name": "Transfertoken",
      "outputs": [],
      "stateMutability": "nonpayable",
      "type": "function"
    }
  ],
  "bytecode": "0x60806040523480156200001157600080fd5b506040518060400160405280600581526020017f41494354450000000000000000000000000000000000000000000000000000008152506040518060400160405280600381526020017f414943000000000000000000000000000000000000000000000000000000000081525081600090816200008f919062000324565b508060019081620000a1919062000324565b5050506200040b565b600081519050919050565b7f4e487b7100000000000000000000000000000000000000000000000000000000600052604160045260246000fd5b7f4e487b7100000000000000000000000000000000000000000000000000000000600052602260045260246000fd5b600060028204905060018216806200012c57607f821691505b602082108103620001425762000141620000e4565b5b50919050565b60008190508160005260206000209050919050565b60006020601f8301049050919050565b600082821b905092915050565b600060088302620001ac7fffffffffffffffffffffffffffffffffffffffffffffffffffffffffffffffff826200016d565b620001b886836200016d565b95508019841693508086168417925050509392505050565b6000819050919050565b6000819050919050565b600062000205620001ff620001f984620001d0565b620001da565b620001d0565b9050919050565b6000819050919050565b6200022183620001e4565b6200023962000230826200020c565b8484546200017a565b825550505050565b600090565b6200025062000241565b6200025d81848462000216565b505050565b5b8181101562000285576200027960008262000246565b60018101905062000263565b5050565b601f821115620002d4576200029e8162000148565b620002a9846200015d565b81016020851015620002b9578190505b620002d1620002c8856200015d565b83018262000262565b50505b505050565b600082821c905092915050565b6000620002f960001984600802620002d9565b1980831691505092915050565b6000620003148383620002e6565b9150826002028217905092915050565b6200032f82620000aa565b67ffffffffffffffff8111156200034b576200034a620000b5565b5b62000357825462000113565b6200036482828562000289565b600060209050601f8311600181146200039c576000841562000387578287015190505b62000393858262000306565b86555062000403565b601f198416620003ac8662000148565b60005b82811015620003d657848901518255600182019150602085019450602081019050620003af565b86831015620003f65784890151620003f2601f891682620002e6565b8355505b6001600288020188555050505b505050505050565b612b0f806200041b6000396000f3fe608060405234801561001057600080fd5b50600436106101005760003560e01c806370a0823111610097578063a22cb46511610066578063a22cb465146102d1578063b88d4fde146102ed578063c87b56dd14610309578063e985e9c51461033957610100565b806370a08231146102375780638f97c15c146102675780639347cf271461028357806395d89b41146102b357610100565b806323b872dd116100d357806323b872dd1461019f5780633d41f475146101bb57806342842e0e146101eb5780636352211e1461020757610100565b806301ffc9a71461010557806306fdde0314610135578063081812fc14610153578063095ea7b314610183575b600080fd5b61011f600480360381019061011a9190611863565b610369565b60405161012c91906118ab565b60405180910390f35b61013d61044b565b60405161014a919061195f565b60405180910390f35b61016d600480360381019061016891906119b7565b6104dd565b60405161017a9190611a25565b60405180910390f35b61019d60048036038101906101989190611a6c565b610523565b005b6101b960048036038101906101b49190611aac565b61063a565b005b6101d560048036038101906101d09190611c34565b61069a565b6040516101e29190611c9f565b60405180910390f35b61020560048036038101906102009190611aac565b6106d1565b005b610221600480360381019061021c91906119b7565b6106f1565b60405161022e9190611a25565b60405180910390f35b610251600480360381019061024c9190611cba565b6107a2565b60405161025e9190611c9f565b60405180910390f35b610281600480360381019061027c9190611ce7565b610859565b005b61029d600480360381019061029891906119b7565b610893565b6040516102aa919061195f565b60405180910390f35b6102bb6108a5565b6040516102c8919061195f565b60405180910390f35b6102eb60048036038101906102e69190611d53565b610937565b005b61030760048036038101906103029190611e34565b61094d565b005b610323600480360381019061031e91906119b7565b6109af565b604051610330919061195f565b60405180910390f35b610353600480360381019061034e9190611ce7565b610ac1565b60405161036091906118ab565b60405180910390f35b60007f80ac58cd000000000000000000000000000000000000000000000000000000007bffffffffffffffffffffffffffffffffffffffffffffffffffffffff1916827bffffffffffffffffffffffffffffffffffffffffffffffffffffffff1916148061043457507f5b5e139f000000000000000000000000000000000000000000000000000000007bffffffffffffffffffffffffffffffffffffffffffffffffffffffff1916827bffffffffffffffffffffffffffffffffffffffffffffffffffffffff1916145b80610444575061044382610b55565b5b9050919050565b60606000805461045a90611ee6565b80601f016020809104026020016040519081016040528092919081815260200182805461048690611ee6565b80156104d35780601f106104a8576101008083540402835291602001916104d3565b820191906000526020600020905b8154815290600101906020018083116104b657829003601f168201915b5050505050905090565b60006104e882610bbf565b6004600083815260200190815260200160002060009054906101000a900473ffffffffffffffffffffffffffffffffffffffff169050919050565b600061052e826106f1565b90508073ffffffffffffffffffffffffffffffffffffffff168373ffffffffffffffffffffffffffffffffffffffff160361059e576040517f08c379a000000000000000000000000000000000000000000000000000000000815260040161059590611f89565b60405180910390fd5b8073ffffffffffffffffffffffffffffffffffffffff166105bd610c0a565b73ffffffffffffffffffffffffffffffffffffffff1614806105ec57506105eb816105e6610c0a565b610ac1565b5b61062b576040517f08c379a00000000000000000000000000000000000000000000000000000000081526004016106229061201b565b60405180910390fd5b6106358383610c12565b505050565b61064b610645610c0a565b82610ccb565b61068a576040517f08c379a0000000000000000000000000000000000000000000000000000000008152600401610681906120ad565b60405180910390fd5b610695838383610d60565b505050565b6000806106a76007610fc6565b90506106b38482610fd4565b6106bd81846111ad565b6106c7600761121a565b8091505092915050565b6106ec8383836040518060200160405280600081525061094d565b505050565b6000806002600084815260200190815260200160002060009054906101000a900473ffffffffffffffffffffffffffffffffffffffff169050600073ffffffffffffffffffffffffffffffffffffffff168173ffffffffffffffffffffffffffffffffffffffff1603610799576040517f08c379a000000000000000000000000000000000000000000000000000000000815260040161079090612119565b60405180910390fd5b80915050919050565b60008073ffffffffffffffffffffffffffffffffffffffff168273ffffffffffffffffffffffffffffffffffffffff1603610812576040517f08c379a0000000000000000000000000000000000000000000000000000000008152600401610809906121ab565b60405180910390fd5b600360008373ffffffffffffffffffffffffffffffffffffffff1673ffffffffffffffffffffffffffffffffffffffff168152602001908152602001600020549050919050565b60006108656007610fc6565b9050600060018261087691906121fa565b90506108828382610523565b61088d84848361063a565b50505050565b606061089e826109af565b9050919050565b6060600180546108b490611ee6565b80601f01602080910402602001604051908101604052809291908181526020018280546108e090611ee6565b801561092d5780601f106109025761010080835404028352916020019161092d565b820191906000526020600020905b81548152906001019060200180831161091057829003601f168201915b5050505050905090565b610949610942610c0a565b8383611230565b5050565b61095e610958610c0a565b83610ccb565b61099d576040517f08c379a0000000000000000000000000000000000000000000000000000000008152600401610994906120ad565b60405180910390fd5b6109a98484848461139c565b50505050565b60606109ba82610bbf565b60006006600084815260200190815260200160002080546109da90611ee6565b80601f0160208091040260200160405190810160405280929190818152602001828054610a0690611ee6565b8015610a535780601f10610a2857610100808354040283529160200191610a53565b820191906000526020600020905b815481529060010190602001808311610a3657829003601f168201915b505050505090506000610a646113f8565b90506000815103610a79578192505050610abc565b600082511115610aae578082604051602001610a9692919061226a565b60405160208183030381529060405292505050610abc565b610ab78461140f565b925050505b919050565b6000600560008473ffffffffffffffffffffffffffffffffffffffff1673ffffffffffffffffffffffffffffffffffffffff16815260200190815260200160002060008373ffffffffffffffffffffffffffffffffffffffff1673ffffffffffffffffffffffffffffffffffffffff16815260200190815260200160002060009054906101000a900460ff16905092915050565b60007f01ffc9a7000000000000000000000000000000000000000000000000000000007bffffffffffffffffffffffffffffffffffffffffffffffffffffffff1916827bffffffffffffffffffffffffffffffffffffffffffffffffffffffff1916149050919050565b610bc881611477565b610c07576040517f08c379a0000000000000000000000000000000000000000000000000000000008152600401610bfe90612119565b60405180910390fd5b50565b600033905090565b816004600083815260200190815260200160002060006101000a81548173ffffffffffffffffffffffffffffffffffffffff021916908373ffffffffffffffffffffffffffffffffffffffff160217905550808273ffffffffffffffffffffffffffffffffffffffff16610c85836106f1565b73ffffffffffffffffffffffffffffffffffffffff167f8c5be1e5ebec7d5bd14f71427d1e84f3dd0314c0f7b2291e5b200ac8c7c3b92560405160405180910390a45050565b600080610cd7836106f1565b90508073ffffffffffffffffffffffffffffffffffffffff168473ffffffffffffffffffffffffffffffffffffffff161480610d195750610d188185610ac1565b5b80610d5757508373ffffffffffffffffffffffffffffffffffffffff16610d3f846104dd565b73ffffffffffffffffffffffffffffffffffffffff16145b91505092915050565b8273ffffffffffffffffffffffffffffffffffffffff16610d80826106f1565b73ffffffffffffffffffffffffffffffffffffffff1614610dd6576040517f08c379a0000000000000000000000000000000000000000000000000000000008152600401610dcd90612300565b60405180910390fd5b600073ffffffffffffffffffffffffffffffffffffffff168273ffffffffffffffffffffffffffffffffffffffff1603610e45576040517f08c379a0000000000000000000000000000000000000000000000000000000008152600401610e3c90612392565b60405180910390fd5b610e508383836114e3565b610e5b600082610c12565b6001600360008573ffffffffffffffffffffffffffffffffffffffff1673ffffffffffffffffffffffffffffffffffffffff1681526020019081526020016000206000828254610eab91906121fa565b925050819055506001600360008473ffffffffffffffffffffffffffffffffffffffff1673ffffffffffffffffffffffffffffffffffffffff1681526020019081526020016000206000828254610f0291906123b2565b92505081905550816002600083815260200190815260200160002060006101000a81548173ffffffffffffffffffffffffffffffffffffffff021916908373ffffffffffffffffffffffffffffffffffffffff160217905550808273ffffffffffffffffffffffffffffffffffffffff168473ffffffffffffffffffffffffffffffffffffffff167fddf252ad1be2c89b69c2b068fc378daa952ba7f163c4a11628f55a4df523b3ef60405160405180910390a4610fc18383836114e8565b505050565b600081600001549050919050565b600073ffffffffffffffffffffffffffffffffffffffff168273ffffffffffffffffffffffffffffffffffffffff1603611043576040517f08c379a000000000000000000000000000000000000000000000000000000000815260040161103a90612454565b60405180910390fd5b61104c81611477565b1561108c576040517f08c379a0000000000000000000000000000000000000000000000000000000008152600401611083906124c0565b60405180910390fd5b611098600083836114e3565b6001600360008473ffffffffffffffffffffffffffffffffffffffff1673ffffffffffffffffffffffffffffffffffffffff16815260200190815260200160002060008282546110e891906123b2565b92505081905550816002600083815260200190815260200160002060006101000a81548173ffffffffffffffffffffffffffffffffffffffff021916908373ffffffffffffffffffffffffffffffffffffffff160217905550808273ffffffffffffffffffffffffffffffffffffffff16600073ffffffffffffffffffffffffffffffffffffffff167fddf252ad1be2c89b69c2b068fc378daa952ba7f163c4a11628f55a4df523b3ef60405160405180910390a46111a9600083836114e8565b5050565b6111b682611477565b6111f5576040517f08c379a00000000000000000000000000000000000000000000000000000000081526004016111ec90612552565b60405180910390fd5b80600660008481526020019081526020016000209081611215919061271e565b505050565b6001816000016000828254019250508190555050565b8173ffffffffffffffffffffffffffffffffffffffff168373ffffffffffffffffffffffffffffffffffffffff160361129e576040517f08c379a00000000000000000000000000000000000000000000000000000000081526004016112959061283c565b60405180910390fd5b80600560008573ffffffffffffffffffffffffffffffffffffffff1673ffffffffffffffffffffffffffffffffffffffff16815260200190815260200160002060008473ffffffffffffffffffffffffffffffffffffffff1673ffffffffffffffffffffffffffffffffffffffff16815260200190815260200160002060006101000a81548160ff0219169083151502179055508173ffffffffffffffffffffffffffffffffffffffff168373ffffffffffffffffffffffffffffffffffffffff167f17307eab39ab6107e8899845ad3d59bd9653f200f220920489ca2b5937696c318360405161138f91906118ab565b60405180910390a3505050565b6113a7848484610d60565b6113b3848484846114ed565b6113f2576040517f08c379a00000000000000000000000000000000000000000000000000000000081526004016113e9906128ce565b60405180910390fd5b50505050565b606060405180602001604052806000815250905090565b606061141a82610bbf565b60006114246113f8565b90506000815111611444576040518060200160405280600081525061146f565b8061144e84611674565b60405160200161145f92919061226a565b6040516020818303038152906040525b915050919050565b60008073ffffffffffffffffffffffffffffffffffffffff166002600084815260200190815260200160002060009054906101000a900473ffffffffffffffffffffffffffffffffffffffff1673ffffffffffffffffffffffffffffffffffffffff1614159050919050565b505050565b505050565b600061150e8473ffffffffffffffffffffffffffffffffffffffff166117d4565b15611667578373ffffffffffffffffffffffffffffffffffffffff1663150b7a02611537610c0a565b8786866040518563ffffffff1660e01b81526004016115599493929190612943565b6020604051808303816000875af192505050801561159557506040513d601f19601f8201168201806040525081019061159291906129a4565b60015b611617573d80600081146115c5576040519150601f19603f3d011682016040523d82523d6000602084013e6115ca565b606091505b50600081510361160f576040517f08c379a0000000000000000000000000000000000000000000000000000000008152600401611606906128ce565b60405180910390fd5b805181602001fd5b63150b7a0260e01b7bffffffffffffffffffffffffffffffffffffffffffffffffffffffff1916817bffffffffffffffffffffffffffffffffffffffffffffffffffffffff19161491505061166c565b600190505b949350505050565b6060600082036116bb576040518060400160405280600181526020017f300000000000000000000000000000000000000000000000000000000000000081525090506117cf565b600082905060005b600082146116ed5780806116d6906129d1565b915050600a826116e69190612a48565b91506116c3565b60008167ffffffffffffffff81111561170957611708611b09565b5b6040519080825280601f01601f19166020018201604052801561173b5781602001600182028036833780820191505090505b5090505b600085146117c85760018261175491906121fa565b9150600a856117639190612a79565b603061176f91906123b2565b60f81b81838151811061178557611784612aaa565b5b60200101907effffffffffffffffffffffffffffffffffffffffffffffffffffffffffffff1916908160001a905350600a856117c19190612a48565b945061173f565b8093505050505b919050565b6000808273ffffffffffffffffffffffffffffffffffffffff163b119050919050565b6000604051905090565b600080fd5b600080fd5b60007fffffffff0000000000000000000000000000000000000000000000000000000082169050919050565b6118408161180b565b811461184b57600080fd5b50565b60008135905061185d81611837565b92915050565b60006020828403121561187957611878611801565b5b60006118878482850161184e565b91505092915050565b60008115159050919050565b6118a581611890565b82525050565b60006020820190506118c0600083018461189c565b92915050565b600081519050919050565b600082825260208201905092915050565b60005b838110156119005780820151818401526020810190506118e5565b8381111561190f576000848401525b50505050565b6000601f19601f8301169050919050565b6000611931826118c6565b61193b81856118d1565b935061194b8185602086016118e2565b61195481611915565b840191505092915050565b600060208201905081810360008301526119798184611926565b905092915050565b6000819050919050565b61199481611981565b811461199f57600080fd5b50565b6000813590506119b18161198b565b92915050565b6000602082840312156119cd576119cc611801565b5b60006119db848285016119a2565b91505092915050565b600073ffffffffffffffffffffffffffffffffffffffff82169050919050565b6000611a0f826119e4565b9050919050565b611a1f81611a04565b82525050565b6000602082019050611a3a6000830184611a16565b92915050565b611a4981611a04565b8114611a5457600080fd5b50565b600081359050611a6681611a40565b92915050565b60008060408385031215611a8357611a82611801565b5b6000611a9185828601611a57565b9250506020611aa2858286016119a2565b9150509250929050565b600080600060608486031215611ac557611ac4611801565b5b6000611ad386828701611a57565b9350506020611ae486828701611a57565b9250506040611af5868287016119a2565b9150509250925092565b600080fd5b600080fd5b7f4e487b7100000000000000000000000000000000000000000000000000000000600052604160045260246000fd5b611b4182611915565b810181811067ffffffffffffffff82111715611b6057611b5f611b09565b5b80604052505050565b6000611b736117f7565b9050611b7f8282611b38565b919050565b600067ffffffffffffffff821115611b9f57611b9e611b09565b5b611ba882611915565b9050602081019050919050565b82818337600083830152505050565b6000611bd7611bd284611b84565b611b69565b905082815260208101848484011115611bf357611bf2611b04565b5b611bfe848285611bb5565b509392505050565b600082601f830112611c1b57611c1a611aff565b5b8135611c2b848260208601611bc4565b91505092915050565b60008060408385031215611c4b57611c4a611801565b5b6000611c5985828601611a57565b925050602083013567ffffffffffffffff811115611c7a57611c79611806565b5b611c8685828601611c06565b9150509250929050565b611c9981611981565b82525050565b6000602082019050611cb46000830184611c90565b92915050565b600060208284031215611cd057611ccf611801565b5b6000611cde84828501611a57565b91505092915050565b60008060408385031215611cfe57611cfd611801565b5b6000611d0c85828601611a57565b9250506020611d1d85828601611a57565b9150509250929050565b611d3081611890565b8114611d3b57600080fd5b50565b600081359050611d4d81611d27565b92915050565b60008060408385031215611d6a57611d69611801565b5b6000611d7885828601611a57565b9250506020611d8985828601611d3e565b9150509250929050565b600067ffffffffffffffff821115611dae57611dad611b09565b5b611db782611915565b9050602081019050919050565b6000611dd7611dd284611d93565b611b69565b905082815260208101848484011115611df357611df2611b04565b5b611dfe848285611bb5565b509392505050565b600082601f830112611e1b57611e1a611aff565b5b8135611e2b848260208601611dc4565b91505092915050565b60008060008060808587031215611e4e57611e4d611801565b5b6000611e5c87828801611a57565b9450506020611e6d87828801611a57565b9350506040611e7e878288016119a2565b925050606085013567ffffffffffffffff811115611e9f57611e9e611806565b5b611eab87828801611e06565b91505092959194509250565b7f4e487b7100000000000000000000000000000000000000000000000000000000600052602260045260246000fd5b60006002820490506001821680611efe57607f821691505b602082108103611f1157611f10611eb7565b5b50919050565b7f4552433732313a20617070726f76616c20746f2063757272656e74206f776e6560008201527f7200000000000000000000000000000000000000000000000000000000000000602082015250565b6000611f736021836118d1565b9150611f7e82611f17565b604082019050919050565b60006020820190508181036000830152611fa281611f66565b9050919050565b7f4552433732313a20617070726f76652063616c6c6572206973206e6f7420746f60008201527f6b656e206f776e6572206e6f7220617070726f76656420666f7220616c6c0000602082015250565b6000612005603e836118d1565b915061201082611fa9565b604082019050919050565b6000602082019050818103600083015261203481611ff8565b9050919050565b7f4552433732313a2063616c6c6572206973206e6f7420746f6b656e206f776e6560008201527f72206e6f7220617070726f766564000000000000000000000000000000000000602082015250565b6000612097602e836118d1565b91506120a28261203b565b604082019050919050565b600060208201905081810360008301526120c68161208a565b9050919050565b7f4552433732313a20696e76616c696420746f6b656e2049440000000000000000600082015250565b60006121036018836118d1565b915061210e826120cd565b602082019050919050565b60006020820190508181036000830152612132816120f6565b9050919050565b7f4552433732313a2061646472657373207a65726f206973206e6f74206120766160008201527f6c6964206f776e65720000000000000000000000000000000000000000000000602082015250565b60006121956029836118d1565b91506121a082612139565b604082019050919050565b600060208201905081810360008301526121c481612188565b9050919050565b7f4e487b7100000000000000000000000000000000000000000000000000000000600052601160045260246000fd5b600061220582611981565b915061221083611981565b925082821015612223576122226121cb565b5b828203905092915050565b600081905092915050565b6000612244826118c6565b61224e818561222e565b935061225e8185602086016118e2565b80840191505092915050565b60006122768285612239565b91506122828284612239565b91508190509392505050565b7f4552433732313a207472616e736665722066726f6d20696e636f72726563742060008201527f6f776e6572000000000000000000000000000000000000000000000000000000602082015250565b60006122ea6025836118d1565b91506122f58261228e565b604082019050919050565b60006020820190508181036000830152612319816122dd565b9050919050565b7f4552433732313a207472616e7366657220746f20746865207a65726f2061646460008201527f7265737300000000000000000000000000000000000000000000000000000000602082015250565b600061237c6024836118d1565b915061238782612320565b604082019050919050565b600060208201905081810360008301526123ab8161236f565b9050919050565b60006123bd82611981565b91506123c883611981565b9250827fffffffffffffffffffffffffffffffffffffffffffffffffffffffffffffffff038211156123fd576123fc6121cb565b5b828201905092915050565b7f4552433732313a206d696e7420746f20746865207a65726f2061646472657373600082015250565b600061243e6020836118d1565b915061244982612408565b602082019050919050565b6000602082019050818103600083015261246d81612431565b9050919050565b7f4552433732313a20746f6b656e20616c7265616479206d696e74656400000000600082015250565b60006124aa601c836118d1565b91506124b582612474565b602082019050919050565b600060208201905081810360008301526124d98161249d565b9050919050565b7f45524337323155524953746f726167653a2055524920736574206f66206e6f6e60008201527f6578697374656e7420746f6b656e000000000000000000000000000000000000602082015250565b600061253c602e836118d1565b9150612547826124e0565b604082019050919050565b6000602082019050818103600083015261256b8161252f565b9050919050565b60008190508160005260206000209050919050565b60006020601f8301049050919050565b600082821b905092915050565b6000600883026125d47fffffffffffffffffffffffffffffffffffffffffffffffffffffffffffffffff82612597565b6125de8683612597565b95508019841693508086168417925050509392505050565b6000819050919050565b600061261b61261661261184611981565b6125f6565b611981565b9050919050565b6000819050919050565b61263583612600565b61264961264182612622565b8484546125a4565b825550505050565b600090565b61265e612651565b61266981848461262c565b505050565b5b8181101561268d57612682600082612656565b60018101905061266f565b5050565b601f8211156126d2576126a381612572565b6126ac84612587565b810160208510156126bb578190505b6126cf6126c785612587565b83018261266e565b50505b505050565b600082821c905092915050565b60006126f5600019846008026126d7565b1980831691505092915050565b600061270e83836126e4565b9150826002028217905092915050565b612727826118c6565b67ffffffffffffffff8111156127405761273f611b09565b5b61274a8254611ee6565b612755828285612691565b600060209050601f8311600181146127885760008415612776578287015190505b6127808582612702565b8655506127e8565b601f19841661279686612572565b60005b828110156127be57848901518255600182019150602085019450602081019050612799565b868310156127db57848901516127d7601f8916826126e4565b8355505b6001600288020188555050505b505050505050565b7f4552433732313a20617070726f766520746f2063616c6c657200000000000000600082015250565b60006128266019836118d1565b9150612831826127f0565b602082019050919050565b6000602082019050818103600083015261285581612819565b9050919050565b7f4552433732313a207472616e7366657220746f206e6f6e20455243373231526560008201527f63656976657220696d706c656d656e7465720000000000000000000000000000602082015250565b60006128b86032836118d1565b91506128c38261285c565b604082019050919050565b600060208201905081810360008301526128e7816128ab565b9050919050565b600081519050919050565b600082825260208201905092915050565b6000612915826128ee565b61291f81856128f9565b935061292f8185602086016118e2565b61293881611915565b840191505092915050565b60006080820190506129586000830187611a16565b6129656020830186611a16565b6129726040830185611c90565b8181036060830152612984818461290a565b905095945050505050565b60008151905061299e81611837565b92915050565b6000602082840312156129ba576129b9611801565b5b60006129c88482850161298f565b91505092915050565b60006129dc82611981565b91507fffffffffffffffffffffffffffffffffffffffffffffffffffffffffffffffff8203612a0e57612a0d6121cb565b5b600182019050919050565b7f4e487b7100000000000000000000000000000000000000000000000000000000600052601260045260246000fd5b6000612a5382611981565b9150612a5e83611981565b925082612a6e57612a6d612a19565b5b828204905092915050565b6000612a8482611981565b9150612a8f83611981565b925082612a9f57612a9e612a19565b5b828206905092915050565b7f4e487b7100000000000000000000000000000000000000000000000000000000600052603260045260246000fdfea264697066735822122077c863eb937f27e70abac8bf533893a6570b80d37bfe17a323cde6f6746ceac564736f6c634300080f0033",
  "immutableReferences": {},
  "source": "//SPDX-License-Identifier:UNLICENSED\r\n\r\npragma solidity >=0.5.0 <0.9.0;\r\n\r\n//This is the smart contract that mints the NFT to the account address of the owner that is dynamically passed\r\n//It also contains a function where the owner can transfer this minted NFT to the leadaccountaddress\r\n\r\n//We need to import the following libaries:\r\nimport \"@openzeppelin/contracts/token/ERC721/ERC721.sol\";\r\n\r\n//This is the ERC721URIStorage which is the implementation of the ERC721 Token along with the funtionality that it maps the tokenuri to the \r\n//given tokenId\r\nimport \"@openzeppelin/contracts/token/ERC721/extensions/ERC721URIStorage.sol\";\r\n\r\n\r\n//This is the Counters library which contains one struct Counter where one could increment the value of the tokenId\r\n//This is useful in case of assigning the tokenIds to the newly minted tokens\r\nimport \"@openzeppelin/contracts/utils/Counters.sol\";\r\n\r\ncontract NFT is ERC721URIStorage{\r\n    //Now inide this smart contract we are first going to have the Counters library\r\n    using Counters for Counters.Counter;\r\n\r\n    //This is the struct of the Counters library\r\n    Counters.Counter private _tokenIds;\r\n\r\n    //This is the constructor which passes the name and the symbol to the frontend\r\n    constructor() ERC721(\"AICTE\",\"AIC\")\r\n    {\r\n\r\n    }\r\n\r\n    //Now this is the function which returns the number of NFTs the user owns\r\n    //In this function the to address is the admin of the university \r\n    //The tokenuri that is passed is based on the plagiarsim that is detected for a particular user\r\n\r\n    //Hence after the minting function is called the tokens are minted to the account address of the \r\n    function mintingtoken(address to,string memory tokenuri) public returns(uint)\r\n    {\r\n\r\n        //Firstly we need to find the tokenId\r\n        uint _tokenId=_tokenIds.current();\r\n\r\n        //This is the mint function which assigns the owner to the tokenId\r\n        _mint(to,_tokenId);\r\n\r\n       //This is the function which sets the tokenuri to the given tokenId\r\n        _setTokenURI(_tokenId,tokenuri);\r\n\r\n        _tokenIds.increment();\r\n        return _tokenId;\r\n    }\r\n\r\n    //This is the function which returns the tokenURI against the tokenid that the user enters\r\n    function gettokenuri(uint tokenId) public returns(string memory)\r\n    {\r\n        return tokenURI(tokenId);\r\n    }\r\n\r\n    //Now this is the transfer function which transfers the token from the admin address to the lead address\r\n    function Transfertoken(address from,address to) public {\r\n\r\n        //This function accepts two parameters\r\n         uint _tokenId=_tokenIds.current();\r\n         uint beforetoken=_tokenId-1;\r\n\r\n         //Before transferring the tokens the first step is to approve the tokens to the to address\r\n         approve(to,beforetoken);\r\n\r\n         //Now once the approval is complete the next step is to transfer the NFT\r\n         transferFrom(from,to,beforetoken);\r\n\r\n\r\n\r\n        \r\n\r\n    }\r\n}",
  "sourcePath": "C:\\Users\\Bhaskar\\Desktop\\SIH-clone\\SIH-Project\\server\\adminlogin\\contracts\\NFT.sol",
  "compiler": {
    "name": "solc",
    "version": "0.8.15+commit.e14f2714.Emscripten.clang"
  },
  "schemaVersion": "3.4.8",
  "updatedAt": "2022-08-24T03:58:25.499Z",
  "networkType": "ethereum",
  "devdoc": {
    "kind": "dev",
    "methods": {
      "approve(address,uint256)": {
        "details": "See {IERC721-approve}."
      },
      "balanceOf(address)": {
        "details": "See {IERC721-balanceOf}."
      },
      "getApproved(uint256)": {
        "details": "See {IERC721-getApproved}."
      },
      "isApprovedForAll(address,address)": {
        "details": "See {IERC721-isApprovedForAll}."
      },
      "name()": {
        "details": "See {IERC721Metadata-name}."
      },
      "ownerOf(uint256)": {
        "details": "See {IERC721-ownerOf}."
      },
      "safeTransferFrom(address,address,uint256)": {
        "details": "See {IERC721-safeTransferFrom}."
      },
      "safeTransferFrom(address,address,uint256,bytes)": {
        "details": "See {IERC721-safeTransferFrom}."
      },
      "setApprovalForAll(address,bool)": {
        "details": "See {IERC721-setApprovalForAll}."
      },
      "supportsInterface(bytes4)": {
        "details": "See {IERC165-supportsInterface}."
      },
      "symbol()": {
        "details": "See {IERC721Metadata-symbol}."
      },
      "tokenURI(uint256)": {
        "details": "See {IERC721Metadata-tokenURI}."
      },
      "transferFrom(address,address,uint256)": {
        "details": "See {IERC721-transferFrom}."
      }
    },
    "version": 1
  },
  "userdoc": {
    "kind": "user",
    "methods": {},
    "version": 1
  }
}