{
  "contractName": "Projectupload",
  "abi": [
    {
      "inputs": [
        {
          "internalType": "address",
          "name": "_owner",
          "type": "address"
        }
      ],
      "stateMutability": "nonpayable",
      "type": "constructor"
    },
    {
      "anonymous": false,
      "inputs": [
        {
          "indexed": true,
          "internalType": "address",
          "name": "student",
          "type": "address"
        },
        {
          "indexed": true,
          "internalType": "address",
          "name": "owner",
          "type": "address"
        },
        {
          "indexed": false,
          "internalType": "string",
          "name": "university",
          "type": "string"
        },
        {
          "indexed": false,
          "internalType": "uint256",
          "name": "date",
          "type": "uint256"
        }
      ],
      "name": "Adminna",
      "type": "event"
    },
    {
      "anonymous": false,
      "inputs": [
        {
          "indexed": true,
          "internalType": "address",
          "name": "student",
          "type": "address"
        },
        {
          "indexed": true,
          "internalType": "address",
          "name": "admin",
          "type": "address"
        },
        {
          "indexed": false,
          "internalType": "string",
          "name": "projectid",
          "type": "string"
        },
        {
          "indexed": false,
          "internalType": "string",
          "name": "university",
          "type": "string"
        },
        {
          "indexed": false,
          "internalType": "uint256",
          "name": "date",
          "type": "uint256"
        }
      ],
      "name": "Uploaded",
      "type": "event"
    },
    {
      "inputs": [
        {
          "internalType": "address",
          "name": "sender",
          "type": "address"
        },
        {
          "internalType": "address",
          "name": "admin",
          "type": "address"
        },
        {
          "internalType": "string",
          "name": "projectid",
          "type": "string"
        },
        {
          "internalType": "string",
          "name": "university",
          "type": "string"
        }
      ],
      "name": "ProjectUploaded",
      "outputs": [],
      "stateMutability": "nonpayable",
      "type": "function"
    },
    {
      "inputs": [
        {
          "internalType": "address",
          "name": "student",
          "type": "address"
        },
        {
          "internalType": "string",
          "name": "university",
          "type": "string"
        }
      ],
      "name": "informowner",
      "outputs": [],
      "stateMutability": "nonpayable",
      "type": "function"
    }
  ],
  "bytecode": "0x608060405234801561001057600080fd5b50604051610683380380610683833981810160405281019061003291906100db565b806000806101000a81548173ffffffffffffffffffffffffffffffffffffffff021916908373ffffffffffffffffffffffffffffffffffffffff16021790555050610108565b600080fd5b600073ffffffffffffffffffffffffffffffffffffffff82169050919050565b60006100a88261007d565b9050919050565b6100b88161009d565b81146100c357600080fd5b50565b6000815190506100d5816100af565b92915050565b6000602082840312156100f1576100f0610078565b5b60006100ff848285016100c6565b91505092915050565b61056c806101176000396000f3fe608060405234801561001057600080fd5b50600436106100365760003560e01c80633fdf5b5f1461003b578063cf1b23be14610057575b600080fd5b61005560048036038101906100509190610325565b610073565b005b610071600480360381019061006c91906103c4565b6100e2565b005b8273ffffffffffffffffffffffffffffffffffffffff168473ffffffffffffffffffffffffffffffffffffffff167f8aeae2b202808fa85203149ebf046027bbe9f083b4dd5496af255edc09a8ddf68484426040516100d4939291906104c1565b60405180910390a350505050565b60008054906101000a900473ffffffffffffffffffffffffffffffffffffffff1673ffffffffffffffffffffffffffffffffffffffff168273ffffffffffffffffffffffffffffffffffffffff167f186a5f38c30df9a2ae089a271603b0b35380ee1bf1a7d29756207c54f24ca2448342604051610161929190610506565b60405180910390a35050565b6000604051905090565b600080fd5b600080fd5b600073ffffffffffffffffffffffffffffffffffffffff82169050919050565b60006101ac82610181565b9050919050565b6101bc816101a1565b81146101c757600080fd5b50565b6000813590506101d9816101b3565b92915050565b600080fd5b600080fd5b6000601f19601f8301169050919050565b7f4e487b7100000000000000000000000000000000000000000000000000000000600052604160045260246000fd5b610232826101e9565b810181811067ffffffffffffffff82111715610251576102506101fa565b5b80604052505050565b600061026461016d565b90506102708282610229565b919050565b600067ffffffffffffffff8211156102905761028f6101fa565b5b610299826101e9565b9050602081019050919050565b82818337600083830152505050565b60006102c86102c384610275565b61025a565b9050828152602081018484840111156102e4576102e36101e4565b5b6102ef8482856102a6565b509392505050565b600082601f83011261030c5761030b6101df565b5b813561031c8482602086016102b5565b91505092915050565b6000806000806080858703121561033f5761033e610177565b5b600061034d878288016101ca565b945050602061035e878288016101ca565b935050604085013567ffffffffffffffff81111561037f5761037e61017c565b5b61038b878288016102f7565b925050606085013567ffffffffffffffff8111156103ac576103ab61017c565b5b6103b8878288016102f7565b91505092959194509250565b600080604083850312156103db576103da610177565b5b60006103e9858286016101ca565b925050602083013567ffffffffffffffff81111561040a5761040961017c565b5b610416858286016102f7565b9150509250929050565b600081519050919050565b600082825260208201905092915050565b60005b8381101561045a57808201518184015260208101905061043f565b83811115610469576000848401525b50505050565b600061047a82610420565b610484818561042b565b935061049481856020860161043c565b61049d816101e9565b840191505092915050565b6000819050919050565b6104bb816104a8565b82525050565b600060608201905081810360008301526104db818661046f565b905081810360208301526104ef818561046f565b90506104fe60408301846104b2565b949350505050565b60006040820190508181036000830152610520818561046f565b905061052f60208301846104b2565b939250505056fea26469706673582212201c536790b2fac0c09e276a1e5ec2b1d8a9c2f0bec334d84b95b9542388b8d17264736f6c634300080f0033",
  "immutableReferences": {},
  "source": "//SPDX-License-Identifier:MIT\r\n\r\npragma solidity >=0.5.0 <0.9.0;\r\n// import Adminlogin from './Adminlogin';\r\n\r\n//This is the smart contract which will trigger various events whenever the project is uploaded\r\ncontract Projectupload{\r\n\r\n    //We also need the adminLogin smart contract to check whether the admin is available or not to check whether the\r\n    //Hence this is the state variable of the admin login\r\n    address owner;\r\n    constructor(address _owner)\r\n    {\r\n        owner=_owner;\r\n        // admin=Adminlogin(_admin);\r\n    }\r\n\r\n    //So majorly two events will be triggered\r\n    //The first event is triggered when the user uploads the project along with the ipfs link and that event is sent to the admin \r\n    //of that particular university\r\n    event Uploaded(address indexed student,address indexed admin,string projectid,string university,uint date);\r\n\r\n    //The second event is triggered whenever the admin of the university is not found and this event is triggered to the owner\r\n    event Adminna(address indexed student, address indexed owner,string university,uint date);\r\n\r\n    function ProjectUploaded(address sender,address admin,string memory projectid,string memory  university) external{\r\n        emit Uploaded(sender,admin,projectid,university,block.timestamp);\r\n    }\r\n\r\n    function informowner(address student,string memory university) external\r\n    {\r\n        emit Adminna(student,owner,university,block.timestamp);\r\n    }\r\n}\r\n\r\n\r\n",
  "sourcePath": "C:\\Users\\Bhaskar\\Desktop\\SIH-clone\\SIH-Project\\server\\adminlogin\\contracts\\Projectupload.sol",
  "compiler": {
    "name": "solc",
    "version": "0.8.15+commit.e14f2714.Emscripten.clang"
  },
  "schemaVersion": "3.4.8",
  "updatedAt": "2022-08-24T03:57:43.080Z",
  "networkType": "ethereum",
  "devdoc": {
    "kind": "dev",
    "methods": {},
    "version": 1
  },
  "userdoc": {
    "kind": "user",
    "methods": {},
    "version": 1
  }
}